:020000040800F2
:100000000000022035290008792800087B28000814
:100010007D2800087F2800088128000800000000D3
:10002000000000000000000000000000832800081D
:10003000852800080000000087280008892800089B
:1000400085290008912800088529000885290008CD
:1000500099280008A128000885290008852900089A
:1000600085290008852900088529000885290008B8
:1000700085290008852900088529000885290008A8
:100080008529000885290008A52800088529000879
:100090008529000885290008852900088529000888
:1000A0008529000885290008852900088529000878
:1000B000B5280008C5280008D528000885290008AB
:1000C0008529000885290008852900088529000858
:1000D0008529000885290008852900088529000848
:1000E0008529000885290008852900088529000838
:1000F0008529000885290008852900088529000828
:100100008529000885290008852900088529000817
:100110008529000885290008852900088529000807
:1001200085290008852900088529000885290008F7
:1001300085290008852900088529000885290008E7
:1001400085290008852900088529000885290008D7
:1001500085290008852900088529000885290008C7
:1001600085290008852900088529000885290008B7
:10017000852900088529000885290008000000005D
:0801800085290008E5280008AC
:1001880010B5054C237833B9044B13B10448AFF3C9
:1001980000800123237010BD100000200000000023
:1001A800E029000808B5034B1BB103490348AFF326
:1001B800008008BD0000000014000020E0290008AD
:1001C80053B94AB9002908BF00281CBF4FF0FF31B6
:1001D8004FF0FF3000F072B9ADF1080C6DE904CEB4
:1001E80000F006F8DDF804E0DDE9022304B070470A
:1001F8002DE9F047089E04468846002B4BD18A42D9
:10020800154667D9B2FA82F24AB1C2F1200701FA5B
:1002180002F320FA07F7954047EA030894404FEAAB
:10022800154E230CB8FBFEF71FFA85FC0EFB17884A
:1002380043EA084307FB0CF1994209D9EB1807F187
:10024800FF3080F01B81994240F21881023F2B4415
:100258005B1AA4B2B3FBFEF00EFB103344EA03446E
:1002680000FB0CFCA44509D92C1900F1FF3380F0E0
:100278000781A44540F2048102382C4440EA074033
:10028800A4EB0C0400271EB1D4400023C6E90043A8
:100298003946BDE8F0878B4209D9002E00F0EB8083
:1002A8000027C6E9000138463946BDE8F087B3FAA9
:1002B80083F7002F47D18B4202D3824200F2FA80A3
:1002C800841A61EB030301209846002EE0D0C6E9AA
:1002D8000048DDE702B9FFDEB2FA82F2002A40F0F8
:1002E8008F80491B4FEA154E1FFA85F80127B1FB8D
:1002F800FEFC230C0EFB1C1143EA014308FB0CF126
:10030800994207D9EB180CF1FF3002D2994200F25A
:10031800CD808446591AA3B2B1FBFEF00EFB10142F
:1003280043EA044408FB00F8A04507D92C1900F15A
:10033800FF3302D2A04500F2B6801846A4EB0804A9
:1003480040EA0C409FE7C7F1200CBB4022FA0CFEA4
:100358004EEA030E01FA07F420FA0CF521FA0CF321
:100368004FEA1E482543B3FBF8F92C0C08FB193358
:100378001FFA8EFA44EA034309FB0AF49C4202FA84
:1003880007F200FA07F10BD91EEB030309F1FF305E
:1003980080F087809C4240F28480A9F1020973446E
:1003A8001B1BADB2B3FBF8F008FB103345EA03445E
:1003B80000FB0AFAA24508D91EEB040400F1FF333A
:1003C8006BD2A24569D90238744440EA0940A0FBBF
:1003D8000289A4EB0A044C45C2464B4654D351D07B
:1003E800002E69D0B1EB0A0564EB030404FA0CFC97
:1003F800FD40FC404CEA0505C6E90054002747E7E4
:10040800C2F1200320FA03F7954001FA02F021FA1D
:1004180003F34FEA154E3843010CB3FBFEF71FFAFE
:1004280085F80EFB173341EA034107FB08F38B42BB
:1004380004FA02F407D9691807F1FF3C2FD28B425E
:100448002DD9023F2944CB1A81B2B3FBFEF00EFB33
:10045800103341EA034100FB08F38B4207D96918BE
:1004680000F1FF3C17D28B4215D902382944C91A2A
:1004780040EA07473BE73746304609E70746E7E6DD
:100488001846FBE64145ABD2B8EB020A69EB0E020F
:1004980001381346A4E76046E9E7184695E767463A
:1004A800D1E781467CE702382C4447E7ACF1020CDF
:1004B8002B442FE7384608E73746E9E6704700BF80
:1004C80010B504460E4B18784FF47A73B3FBF0F36B
:1004D8000C4A1068B0FBF3F000F0DCFB68B90F2C95
:1004E80001D901200AE0002221464FF0FF3000F038
:1004F8008FFB034B5C60002000E0012010BD00BFB3
:10050800000000200C00002008B50B4B1A6842F4CC
:1005180000721A601A6842F480621A601A6842F41B
:1005280080721A60032000F061FB0020FFF7C8FF0B
:1005380002F078F8002008BD003C0240034A116828
:10054800034B1B780B441360704700BF80000020EA
:1005580000000020014B1868704700BF8000002091
:1005680038B50446FFF7F6FF0546B4F1FF3F02D061
:10057800044B1B781C44FFF7EDFF401BA042FAD345
:1005880038BD00BF000000204A4B5A6822F44032B0
:100598005A605A6841680A435A600268536823F4EB
:1005A8008073536002685368016943EA012353600A
:1005B8000268536823F04073536002685368816887
:1005C8000B4353600268936823F4006393600268E6
:1005D8009368C1680B439360826A374B9A424BD049
:1005E8000268936823F07063936002689368816A75
:1005F8000B4393600268936823F04053936002684A
:100608009368C16A0B4393600268936823F00203FE
:10061800936002689368017E43EA4103936090F80F
:100628002030002B33D10268536823F400635360F1
:100638000268D36A23F47003D3620168CB6AC26983
:10064800013A43EA0253CB620268936823F40073C9
:1006580093600268936890F8301043EA41239360EE
:100668000268936823F48063936002689368416921
:1006780043EA8123936070470268936823F07063AC
:1006880093600268936823F040539360BCE7026864
:10069800536843F4006353600268536823F460436B
:1006A800536001684B68426A013A43EA42334B603F
:1006B800BEE700BF002301400100000F38B310B5AA
:1006C8000446036C43B1236C13F0100F0BD00120C8
:1006D800002384F83C3010BD01F0E0FF0023636480
:1006E80084F83C30EFE7236C23F4885323F00203AB
:1006F80043F0020323642046FFF746FF00206064AE
:10070800236C23F0030343F001032364E0E7012093
:100718007047000082B00023019390F83C30012B11
:100728007DD0012380F83C3003689A6812F0010FED
:1007380013D19A6842F001029A603E4B1B683E4A08
:10074800A2FB03239B0C03EB4303019302E0019BF1
:10075800013B0193019B002BF9D10268936813F0C8
:10076800010F5ED0036C23F4E06323F0010343F42C
:1007780080730364536813F4806F05D0036C23F40B
:10078800405343F480530364036C13F4805F1BD01D
:10079800436C23F006034364002380F83C306FF079
:1007A80022031360254B5B6813F01F0F27D10368E2
:1007B800234A934219D002F58072934207D0214A06
:1007C80093420BD000202DE000234364E4E702F5B8
:1007D8000072526812F01F0F07D0F0E702F580721E
:1007E800526802F01F020F2A1ED89A6812F0405F62
:1007F8001CD19A6842F080429A60002012E0036897
:100808000F4A934201D000200CE09A6812F0405F32
:100818000ED19A6842F080429A60002002E00220DD
:1008280000E0002002B070470020FBE70020F9E755
:100838000020F7E70C00002083DE1B430023014063
:10084800002001400022014003689A6812F4806F7A
:1008580003D09B6813F4807F1CD170B50D46044605
:10086800FFF778FE064623681A6812F0020F1AD1BD
:10087800B5F1FF3FF7D025B1FFF76CFE801BA8420A
:10088800F1D9236C43F004032364002384F83C303B
:1008980003202DE0036C43F020030364002380F859
:1008A8003C30012070476FF012021A60236C43F449
:1008B8000073236423689A6812F0405F17D1227E80
:1008C800BAB9DA6A12F4700F03D09B6813F4806F18
:1008D80011D1236C23F480732364236C13F4805F99
:1008E8000BD1236C43F001032364002000E00020B7
:1008F80070BD0020FCE70020FAE70020F8E7036855
:10090800D86C704770477047704738B5044602681E
:100918001168536811F0020F2FD003F0200363B35E
:10092800036C13F0100F03D1036C43F400730364DA
:10093800936813F0405F19D1237EBBB9D36A13F4CF
:10094800700F03D0936813F4806F0FD1536823F0AE
:1009580020035360236C23F480732364236C13F403
:10096800805F03D1236C43F0010323642046FFF723
:10097800C9FF23686FF012021A60236819685A6861
:1009880002F0800211F0040F36D0002A34D0226C15
:1009980012F0100F03D1226C42F4005222649A68BC
:1009A80012F4401F21D19A6B12F4401F03D09A68A9
:1009B80012F4806F19D15A6812F4806F15D19A68B1
:1009C80012F0405F11D1227E7AB95A6822F0800273
:1009D8005A60236C23F480532364236C13F4807FC0
:1009E80003D1236C43F001032364204600F0FCF894
:1009F80023686FF00C021A6022681168536803F0CC
:100A0800400311F0010F04D01BB1136813F0010F5C
:100A180009D122681168536803F0806311F0200F30
:100A280000D063B938BD236C43F480332364204677
:100A3800FFF769FF23686FF001021A60E9E7636C4A
:100A480043F0020363646FF0200515602046FFF74A
:100A58005BFF23681D60E5E730B482B00023019393
:100A680090F83C30012B00F0B780012380F83C302F
:100A78000B68092B3ED90568EA689BB203EB430370
:100A88001E3B072404FA03F322EA0303EB6005681C
:100A9800EA688C680B8803EB43031E3B04FA03F3F4
:100AA8001343EB604B68062B3AD805686A6B03EB77
:100AB8008303053B1F2404FA03F322EA03036B6351
:100AC80005686A6B4B6803EB8303053B0C8804FAE3
:100AD80003F313436B630268404B9A4250D0026899
:100AE8003E4B9A4255D0002380F83C30184602B05D
:100AF80030BC704705682A699BB203EB430307249F
:100B080004FA03F322EA03032B6105682A698C6857
:100B18000B8803EB430304FA03F313432B61C1E788
:100B28000C2B16D805682A6B03EB8303233B1F2481
:100B380004FA03F322EA03032B6305682A6B4B6864
:100B480003EB8303233B0C8804FA03F313432B635F
:100B5800C1E70568EA6A03EB8303413B1F2404FAF3
:100B680003F322EA0303EB620568EA6A4B6803EBC6
:100B78008303413B0C8804FA03F31343EB62AAE7AF
:100B88000B68122BABD1164A536843F480035360A9
:100B9800A5E70B68103B012BA5D8114A536843F40D
:100BA800000353600B68102B9DD10E4B1B6802F19C
:100BB800467202F52E3202F28332A2FB03239B0C0B
:100BC80003EB83035A00019202E0019B013B01936E
:100BD800019B002BF9D186E7022088E7002001401D
:100BE800002301400C00002070470000074AD3682A
:100BF80023F4E0631B041B0C000200F4E0601843BC
:100C080040F0BF6040F40030D060704700ED00E075
:100C180030B4174BDB68C3F30223C3F10704042C79
:100C280028BF04241D1D062D18D9033B4FF0FF359E
:100C380005FA04F421EA0401994005FA03F322EACB
:100C48000303194300280BDB0901C9B200F1604016
:100C580000F5614080F8001330BC70470023E5E7D9
:100C680000F00F000901C9B2024B1954F4E700BFA4
:100C780000ED00E014ED00E0002807DB00F01F02A3
:100C8800400901239340024A42F82030704700BFD0
:100C980000E100E00138B0F1807F0AD2064B5860CD
:100CA800064AF02182F823100020986007221A6073
:100CB80070470120704700BF10E000E000ED00E041
:100CC800204BDB6813F0100F07D01F4AD36943F09D
:100CD8001003D3611B4B1022DA601A4BDB6813F048
:100CE800200F07D0184AD36943F00803D361154B86
:100CF8002022DA60134BDB6813F0400F07D0124A4A
:100D0800D36943F00403D3610E4B4022DA600D4BE4
:100D1800DB6813F0800F07D00B4AD36943F0020356
:100D2800D361084B8022DA60064BDB6813F0020FB0
:100D380007D0054AD36943F02003D361014B02224F
:100D4800DA607047003C024084000020704770471A
:100D580010B53A4BDB6813F0F20F13D0384B1B7801
:100D6800DBB2012B3BD0364B1B78DBB2022B3CD0DD
:100D7800334B5C69FFF7A4FF2046FFF7E8FF304BD1
:100D880000221A702D4BDB6813F0010F13D02B4B88
:100D98000122DA602A4B1B78DBB2934228D0284B19
:100DA8001B78DBB2022B41D0254B5869FFF7CEFFE9
:100DB800234B00221A70224B1B787BB91F4B1A69F0
:100DC80022F0FF021A611A6922F080721A611A6908
:100DD80022F000721A611A4B00221A7610BD184BC5
:100DE800DC684FF0FF32DA60C4E7154B1C69C1E7D5
:100DF800134B5A68013A5A605B685BB1104CE06863
:100E0800FFF7A4FFE3680133E360E068217A00F0AC
:100E180019F8D0E70A4B4FF0FF34DC6000221A7053
:100E280000F03CF82046FFF791FFC4E700F036F8E1
:100E3800034B1869FFF78AFFBAE700BF003C02407E
:100E48008400002010B449B1012921D0022902D020
:100E58004FF4407403E04FF4007400E000240E4B9C
:100E6800196921F4407119611A6922431A611A69D2
:100E780022F0F8021A611A6942EAC00040F0020042
:100E880018611A6942F480321A615DF8044B7047A0
:100E98004FF48074E3E700BF003C0240164B1B6828
:100EA80013F4007F10D0144B1A6822F400721A60F1
:100EB8001A6842F400621A601A6822F400621A6022
:100EC8001A6842F400721A600B4B1B6813F4806FA7
:100ED80010D0094B1A6822F480621A601A6842F42A
:100EE80080521A601A6822F480521A601A6842F412
:100EF80080621A60704700BF003C024000230F2B3D
:100F080000F2D780F0B482B039E0072200E0002276
:100F1800B2403A430234674E46F82420664A1468C1
:100F2800EA4302EA04064F6817F4803F01D045EA15
:100F38000406614C2660646802EA04064F6817F4E8
:100F4800003F01D045EA04065B4C6660A46802EAEB
:100F580004064F6817F4801F01D045EA0406564C72
:100F6800A660E46822404E6816F4001F01D045EAE6
:100F78000402514CE26001330F2B00F297800122EA
:100F88009A400C6804EA0205AA42F4D14C68022C83
:100F980001D0122C10D1DE08083650F826C003F014
:100FA8000704A7000F24BC402CEA040C0C69BC40C1
:100FB80044EA0C0440F8264004685F000326BE405B
:100FC800F64306EA040C4C6804F00304BC4044EA07
:100FD8000C0404604C6804F1FF3CBCF1010F03D918
:100FE800112C01D0122C10D1846806EA040CCC68AC
:100FF800BC4044EA0C048460446824EA02024C6859
:10100800C4F300149C4014434460C26816408A68C4
:10101800BA403243C2604A6812F0805FABD0002207
:101028000192264A546C44F480445464526C02F48D
:1010380080420192019A9C08A61C1E4A52F826700A
:1010480003F0030296000F22B24027EA02071C4A67
:1010580090423FF45CAF02F5806290421AD002F5EC
:101068008062904218D002F58062904216D002F554
:101078008062904214D002F58062904212D002F54C
:101088008062904210D002F5806290423FF43DAFFA
:1010980008223DE701223BE7022239E7032237E72E
:1010A800042235E7052233E7062231E702B0F0BC17
:1010B8007047704700380140003C0140003802404A
:1010C800000002400369194201D100207047012045
:1010D800704712B909048161704781617047704790
:1010E80008B5064B5B6913F4803F00D108BDFFF7D4
:1010F800F6FF024B4FF480325A61F7E7003C01409B
:10110800002800F0BB8170B582B00446036813F074
:10111800010F3BD0A74B9B6803F00C03042B2CD08A
:10112800A44B9B6803F00C03082B21D06368B3F52C
:10113800803F4FD0B3F5A02F52D09E4B1A6822F4AF
:1011480080321A601A6822F480221A606368002BC1
:1011580050D0FFF7FFF90546964B1B6813F4003F84
:1011680014D1FFF7F7F9401B6428F5D903208AE169
:10117800904B5B6813F4800FD8D08E4B1B6813F428
:10118800003F03D06368002B00F07A81236813F0D6
:10119800020F55D0874B9B6813F00C0F3ED0854B40
:1011A8009B6803F00C03082B33D0E368002B68D04E
:1011B800814B01221A60FFF7CDF905467D4B1B686C
:1011C80013F0020F54D1FFF7C5F9401B0228F5D9D7
:1011D800032058E1774A136843F480331360B5E776
:1011E800744B1A6842F480221A601A6842F48032FA
:1011F8001A60ABE7FFF7AEF905466E4B1B6813F4B0
:10120800003FC3D0FFF7A6F9401B6428F5D9032097
:1012180039E1684B5B6813F4800FC6D1654B1B68D6
:1012280013F0020F04D0E368012B01D001202AE15A
:10123800604A136823F0F803216943EAC103136085
:10124800236813F0080F40D0636963B35B4B012236
:101258001A60FFF77FF90546564B5B6F13F0020FD4
:1012680033D1FFF777F9401B0228F5D903200AE1AB
:10127800504A136823F0F803216943EAC103136055
:10128800DEE74D4B00221A60FFF764F90546494B2B
:101298001B6813F0020FD3D0FFF75CF9401B02283C
:1012A800F5D90320EFE0454B00221A60FFF752F909
:1012B8000546404B5B6F13F0020F06D0FFF74AF963
:1012C800401B0228F5D90320DDE0236813F0040F42
:1012D80079D0384B1B6C13F0805F33D10023019316
:1012E800344B1A6C42F080521A641B6C03F0805322
:1012F8000193019B0125324B1B6813F4807F23D097
:10130800A368012B34D0052B38D02A4B1A6F22F052
:1013180001021A671A6F22F004021A67A368002BE9
:1013280036D0FFF717F90646224B1B6F13F0020F52
:1013380048D1FFF70FF9801B41F288339842F3D95F
:101348000320A0E00025D6E71D4A136843F4807304
:101358001360FFF7FFF80646194B1B6813F4807FEC
:10136800CED1FFF7F7F8801B0228F5D903208AE0D1
:10137800104A136F43F001031367CFE70D4B1A6F41
:1013880042F004021A671A6F42F001021A67C5E7B1
:10139800FFF7E0F80646074B1B6F13F0020F11D05A
:1013A800FFF7D8F8801B41F288339842F3D903201D
:1013B80069E000BF0038024000004742800E474203
:1013C80000700040E5B9A369002B5BD0304A9268F1
:1013D80002F00C02082A58D0022B17D02D4B0022FD
:1013E8001A60FFF7B7F80446294B1B6813F0007F13
:1013F80042D0FFF7AFF8001B0228F5D9032042E0DE
:10140800234A136C23F080531364DCE7214B00223A
:101418001A60FFF79FF805461D4B1B6813F0007F05
:1014280006D0FFF797F8401B0228F5D903202AE0D9
:10143800E369226A1343626A43EA8213A26A520882
:10144800013A43EA0243E26A43EA0263104A5360FC
:10145800104B01221A60FFF77DF804460C4B1B68FD
:1014680013F0007F06D1FFF775F8001B0228F5D9A5
:10147800032008E0002006E0002004E00120704777
:10148800012000E0002002B070BD0120FBE700BF92
:101498000038024060004742324B9B6803F00C035F
:1014A800042B5CD0082B01D02F4870472DE9F04B56
:1014B8002C4B5A6802F03F025B6813F4800F2BD064
:1014C800284B5B68C3F388131E4600275C01002580
:1014D800E41A65EB0705A90141EA9461A001001B24
:1014E80061EB0501CB0043EA5073C400A01943EB3C
:1014F80007014B0243EAD053440220461946002311
:10150800FEF75EFE174B5B68C3F3014301335B00D4
:10151800B0FBF3F0BDE8F08B124B5B68C3F38813A4
:101528001E4600275C010025E41A65EB0705A901A2
:1015380041EA9461A001001B61EB0501CB0043EA7D
:101548005073C400A01943EB07018B0243EA905380
:101558008402204619460023FEF732FED2E70348EC
:10156800704700BF003802400024F40000127A00DF
:10157800002800F09D8070B504464F4B1B6803F0AF
:101588000F038B4209D2CBB24B4A1370136803F096
:101598000F038B4201D0012070BD236813F0020FA6
:1015A80017D013F0040F04D0444A936843F4E0536F
:1015B8009360236813F0080F04D0404A936843F4FB
:1015C800604393603D4A936823F0F003A0680343A7
:1015D80093600D46236813F0010F32D06368012B26
:1015E80021D09A1E012A25D9344A126812F0020F16
:1015F80060D032498A6822F0030213438B60FEF7F9
:10160800A9FF06462D4B9B6803F00C036268B3EBF9
:10161800820F16D0FEF79EFF801B41F28833984256
:10162800F0D90320B8E7254A126812F4003FE0D148
:101638000120B1E7214A126812F0007FD9D10120B8
:10164800AAE71D4B1B6803F00F03AB4209D9EAB2A6
:10165800194B1A701B6803F00F03AB4201D001202D
:101668009AE7236813F0040F06D0144A936823F40A
:10167800E053E1680B439360236813F0080F07D029
:101688000E4A936823F46043216943EAC1039360D7
:10169800FFF702FF094B9B68C3F30313084AD35CA7
:1016A800D840084B18600020FEF70AFF002073E7B7
:1016B8000120704701206FE7003C024000380240DB
:1016C800F82900080C00002030B4036A23F0010355
:1016D8000362056A4268846924F073040B681C433A
:1016E80025F002058B682B43104DA84203D005F561
:1016F8008065A84205D123F00803CD682B4323F069
:1017080004030A4DA84203D005F58065A84205D117
:1017180022F440724D6915438A692A434260846104
:101728004A684263036230BC704700BF0000014052
:1017380030B4036A23F480730362036A4268C4699D
:1017480024F073040D682C4323F400738D6843EA76
:101758000523124DA84203D005F58065A84206D19D
:1017680023F40063CD6843EA052323F480630B4D1B
:10177800A84203D005F58065A84207D122F440525B
:101788004D6942EA05128D6942EA05124260C46158
:101798004A68C263036230BC704700BF0000014062
:1017A80030B4036A23F480530362036A4468C2694D
:1017B80022F4E6420D6842EA052223F400538D68BC
:1017C80043EA0533094DA84203D005F58065A842D0
:1017D80004D124F480444D6944EA85144460C2610C
:1017E8004A680264036230BC704700BF00000140D1
:1017F80010B4036A046A24F001040462846924F0C2
:10180800F00444EA021223F00A030B4382610362E4
:101818005DF8044B704710B4036A23F010030362A9
:101828008469036A24F4704444EA023223F0A00372
:1018380043EA0113826103625DF8044B70478368D1
:1018480023F07003194341F0070181607047026873
:10185800D36843F00103D3600268936803F0070379
:10186800062B03D0136843F0010313600020704770
:101878007047704770477047704710B50446036853
:101888001A6912F0020F11D0DA6812F0020F0DD0A7
:101898006FF002021A610123037703689B6913F052
:1018A800030F70D0FFF7E6FF0023237723681A6938
:1018B80012F0040F12D0DA6812F0040F0ED06FF095
:1018C80004021A610223237723689B6913F4407F7B
:1018D8005FD02046FFF7CEFF0023237723681A69DD
:1018E80012F0080F12D0DA6812F0080F0ED06FF05D
:1018F80008021A61042323772368DB6913F0030FB6
:101908004ED02046FFF7B6FF0023237723681A69D5
:1019180012F0100F12D0DA6812F0100F0ED06FF01C
:1019280010021A61082323772368DB6913F4407FC8
:101938003DD02046FFF79EFF0023237723681A69CE
:1019480012F0010F03D0DA6812F0010F36D12368C4
:101958001A6912F0800F03D0DA6812F0800F34D1C0
:1019680023681A6912F0400F03D0DA6812F0400FAA
:1019780032D123681A6912F0200F03D0DA6812F006
:10198800200F30D110BDFFF774FF2046FFF773FF1B
:101998008AE72046FFF76DFF2046FFF76CFF9BE7BD
:1019A8002046FFF766FF2046FFF765FFACE72046B5
:1019B800FFF75FFF2046FFF75EFFBDE76FF001020C
:1019C8001A61204600F08AFBC1E76FF080021A61B5
:1019D800204600F019FAC3E76FF040021A6120466A
:1019E800FFF74AFFC5E76FF020021A61204600F0B2
:1019F8000AFAC7E70368304A904212D0B0F1804F24
:101A08000FD0A2F57C4290420BD002F58062904242
:101A180007D002F58062904203D002F578429042E6
:101A280003D123F070034A681343234A90422AD013
:101A3800B0F1804F27D0A2F57C42904223D002F526
:101A4800806290421FD002F5806290421BD002F55E
:101A58007842904217D002F57052904213D002F5A6
:101A6800806290420FD002F5806290420BD0A2F5BE
:101A78009832904207D002F58062904203D002F576
:101A88008062904203D123F44073CA68134323F061
:101A980080034A69134303608B68C3620B688362DF
:101AA800054B984203D003F58063984201D10B6936
:101AB800036301234361704700000140A8B110B5DA
:101AC800044690F83D305BB1022384F83D30211D77
:101AD8002068FFF78FFF012384F83D30002010BDF8
:101AE80080F83C3000F016FEEEE701207047A8B100
:101AF80010B5044690F83D305BB1022384F83D30C0
:101B0800211D2068FFF776FF012384F83D3000206F
:101B180010BD80F83C30FFF7ABFEEEE701207047C0
:101B280030B4036A23F010030362036A44688269CD
:101B380022F4E6420D6842EA052223F020038D686C
:101B480043EA0513114DA84203D005F58065A84264
:101B580006D123F08003CD6843EA051323F0400340
:101B68000A4DA84203D005F58065A84207D124F4A0
:101B780040644D6944EA85048D6944EA85044460FB
:101B880082614A688263036230BC7047000001408A
:101B980038B590F83C30012B66D00D460446012339
:101BA80080F83C30022380F83D300C2A1AD8DFE850
:101BB80002F00719191920191919341919194700A8
:101BC8000068FFF781FD2268936943F00803936179
:101BD8002268936923F00403936122689369296951
:101BE8000B439361012384F83D30002084F83C00C6
:101BF80038BD0068FFF794FF2268936943F40063D7
:101C080093612268936923F48063936122689369DE
:101C1800296943EA01239361E4E70068FFF788FD37
:101C28002268D36943F00803D3612268D36923F09B
:101C38000403D3612268D36929690B43D361D1E7CF
:101C48000068FFF7ADFD2268D36943F40063D361F0
:101C58002268D36923F48063D3612268D369296930
:101C680043EA0123D361BDE70220C1E710B48468C9
:101C780024F47F4442EA03230B43234383605DF843
:101C8800044B704790F83C30012B66D010B50446E1
:101C9800012380F83C30022380F83D3002689368C5
:101CA80023F47F4323F0770393600B68402B4AD0DB
:101CB80013D9602B3DD01ED9702B28D0B3F5005F07
:101CC80030D1CB684A6889680068FFF7CFFF22687F
:101CD800936843F48043936024E0102B06D004D922
:101CE800202B03D0302B01D01CE0DBB9194620682B
:101CF800FFF7A5FD16E0502B14D1CA6849680068A3
:101D0800FFF776FD50212068FFF799FD0AE0CB68C0
:101D18004A6889680068FFF7A9FF2268936843F05A
:101D280077039360012384F83D30002084F83C0059
:101D380010BDCA6849680068FFF76DFD602120681A
:101D4800FFF77DFDEEE7CA6849680068FFF750FDB8
:101D580040212068FFF773FDE4E70220704710B4C4
:101D680001F01F01012303FA01F4036A23EA0403C3
:101D78000362036A8A40134303625DF8044B7047A9
:101D880010B5044601220068FFF7E9FF23680B4AF3
:101D9800934203D002F58062934203D15A6C42F415
:101DA80000425A642268936803F00703062B03D0A5
:101DB800136843F001031360002010BD00000140C8
:101DC80090F83C30012B1CD070B4012680F83C60A0
:101DD800022380F83D3002685568936825F0700545
:101DE8000C682C4323F080054B682B435460026831
:101DF800936080F83D60002380F83C30184670BC42
:101E0800704702207047704770470000F0B58DB0EA
:101E180000240794089409940A940B940194344B71
:101E28001A6B42F080021A631A6B02F08002019268
:101E3800019A02941A6B42F004021A631A6B02F0B8
:101E480004020292029A03941A6B42F001021A6386
:101E58001A6B02F001020392039A04941A6B42F07F
:101E680002021A631A6B02F002020492049A0594A1
:101E78001A6B42F010021A631A6B02F010020592F4
:101E8800059A06941A6B42F008021A631B6B03F05A
:101E980008030693069B174E22464FF470413046BE
:101EA800FFF717F90C23079308940225099507A94A
:101EB8001148FFF723F8012707970894099507A900
:101EC8000E48FFF71BF84FF48073079308940995A1
:101ED80007A90B48FFF712F84FF4704307930897C8
:101EE80009940A9407A93046FFF708F80DB0F0BD29
:101EF80000380240000C0240000802400000024086
:101F08000010024070B584B0002500950195029537
:101F18000395104C104B23604FF480336360A56029
:101F28002561257684F82050E5620C4BA362E560B4
:101F38000126E66184F8305066612046FEF7BEFB54
:101F480000960196029569462046FEF785FD04B085
:101F580070BD00BF24010020002001400100000FD7
:101F680030B587B000240294039404940594009437
:101F780001940E4D4FF080432B6014236B60AC60CE
:101F88002723EB602C61AC612846FFF797FD4FF4DF
:101F98008053029302A92846FFF774FE0094019427
:101FA80069462846FFF70CFF07B030BD6C010020DA
:101FB80030B58FB000240A940B940C940D940894B7
:101FC8000994019402940394049405940694079444
:101FD8001C4D1D4B2B6040F247336B60AC6042F2E6
:101FE8000F73EB602C61AC612846FFF767FD4FF477
:101FF80080530A930AA92846FFF744FE2846FFF7AC
:1020080076FD0894099408A92846FFF7D9FE6023AD
:102018000193029403940594224601A92846FFF7E8
:10202800B7FD04220DEB02012846FFF7B1FD082297
:1020380001A92846FFF7ACFD284600F0BDFB0FB00C
:1020480030BD00BFE40000200004004030B58FB070
:1020580000240A940B940C940D9408940994019408
:10206800029403940494059406940794194D1A4B0A
:102078002B6029236B60AC6040F2CF73EB602C615E
:10208800AC612846FFF71AFD4FF480530A930AA95A
:102098002846FFF7F7FD2846FFF729FD089409941D
:1020A80008A92846FFF78CFE602301930294039445
:1020B8000594224601A92846FFF76AFD04220DEB84
:1020C80002012846FFF764FD284600F075FB0FB0B3
:1020D80030BD00BFA4000020000800400368B3F131
:1020E800804F04D002682E4B9A4205D070472D4A83
:1020F800136801331360F5E72A4B5A6801325A60B6
:102108005B68032BF2D1274B00225A609B68082B8F
:1021180003DD244BDB68012B37D0224B9B68072B50
:1021280003DC204BDB68012B34D01F4B9B6BB3F5D2
:10213800C86F03D31C4B40F23F629A631A4B9A6BE9
:1021480040F212539A4203D8174B40F213529A6343
:10215800154B9A6B40F2DA539A4207D8114B9B6899
:10216800072B03DC104B40F2DB529A630E4B9A6B41
:1021780040F2DB539A42B9D90A4B9B68082BB5DD6C
:10218800094B40F2DB529A63B0E7074A936B463B30
:102198009363C2E7044A936B46339363C5E700BF72
:1021A800000400402C0000200008004010B50E4C30
:1021B80000224FF470412046FEF78BFF6420FEF7A3
:1021C800CFF901224FF410412046FEF782FF074B5A
:1021D80040F2DB525A639A634FF44870FEF7C0F935
:1021E800034B01221A6110BD000C02400008004098
:1021F8002C00002010B50C4C00224FF470412046F2
:10220800FEF767FF6420FEF7ABF901224FF4204187
:102218002046FEF75EFF054B40F2DB525A639A6395
:10222800034B00221A6110BD000C02400008004058
:102238002C00002030B595B03022002108A800F00D
:10224800C3FB002403940494059406940794019412
:102258001B4B1A6C42F080521A641B6C03F08053BB
:102268000193019B0294174B1A6842F480421A604A
:102278001B6803F480430293029B012308934FF4E5
:102288008033099302250E954FF480030F9304239E
:102298001093A82211921295139308A8FEF730FF05
:1022A8000F230393049505944FF4A05306934FF41A
:1022B80080530793052103A8FFF75AF915B030BDDD
:1022C800003802400070004008B5FEF71DF9FFF71E
:1022D800B1FFFFF79BFDFFF715FEFFF741FEFFF784
:1022E80067FEFFF7B3FE6C4C2046FFF7B0FA0021FB
:1022F8002046FFF745FD04212046FFF741FD012256
:1023080003216648FEF7E5FE012280216448FEF7B6
:10231800E0FE644B40F2DB525A639A636248FFF76F
:1023280096FA624C2046FFF792FA00212046FFF702
:1023380027FD04212046FFF723FD08212046FFF74B
:102348001FFD5B4B01225A639A63DA63F5E0594C2F
:1023580001224FF420412046FEF7BBFE00224FF435
:10236800A0412046FEF7B5FE534B00221A60534B9E
:102378000122DA60F5E004214848FEF7A3FE4F4B3E
:102388001862F3E04D4B5B6A002B40F0F4804B4B36
:1023980001225A621A689A62EDE0484900234B62AA
:1023A8000A688B6AD21A02EB02125300444A82FB73
:1023B8000302DB17C3EBA213CB62CB6AC82B01DD88
:1023C800C922CA623D4BDB6A012B00F3DC803B4B20
:1023D8000122DA62D7E008213048FEF773FE374B56
:1023E8001863D5E0354B5B6B002B40F0D680334B40
:1023F80001225A631A689A63CFE0304900234B637D
:102408000A688B6BD21A02EB021253002C4A82FB29
:102418000302DB17C3EBA2138B608B68C82B01DDAB
:10242800C9228A60254B9B68012B00F3BE80234B91
:1024380001229A60B9E04FF480711948FEF742FE14
:102448001E4BD863B6E01D4B1B6C002B40F0B780C9
:102458001A4B01221A641A685A64B0E0174900231B
:102468000B640A684B6CD21A02EB02125300144A2E
:1024780082FB0302DB17C3EBA2138B648B6CC82BA4
:1024880001DDC9228A640D4B9B6C012B00F39F80F0
:102498000A4B01229A649AE0A40000200008024036
:1024A80000100240000800406C010020E4000020F9
:1024B80000040040000C0240080000202C0000200E
:1024C8001F85EB51504BDB6A042B0EDC4E4B1A6810
:1024D80042F210739A4208DD4B4B1B69012B04D062
:1024E8004A4B1B68002B00F08B800A214848FEF7F6
:1024F800ABF910BB444BDB6CFBB94548FEF7FFF961
:1025080080B2444B18801B889BB240F6B732934286
:1025180005D83D4A136803F59C53083313653A4BB5
:102528001A6D1B689A4208DA00224FF470413A4843
:10253800FEF7CFFD354B01221A603548FEF7EAF861
:10254800364B5A6B304C62619B6BA3610121344856
:10255800FEF7B8FDE061E3681BB9E369012B3FF4BE
:10256800F6AE294B5B68002B3FF405AF264B1B6A80
:10257800012B3FF407AF244B1B6A23B9224B5B6A3C
:10258800012B3FF40AAF204B5B68012B3FF423AFCC
:102598001D4B1B6B012B3FF425AF1B4B1B6B23B94A
:1025A800194B5B6B012B3FF428AF174B5B68022B71
:1025B8003FF441AF144BDB6B012B3FF444AF124B9C
:1025C800DB6B23B9104B1B6C012B3FF447AF0E4B51
:1025D800DB6A042B7FF776AF0B4B1A6842F2107355
:1025E8009A427FF76FAF084B1B69002B3FF46AAF25
:1025F800064B1B68002B7FF465AFFFF7FBFD61E717
:10260800FFF7D4FD71E700BF2C0000200800002070
:1026180024010020AC010020000C0240000800400A
:102628000000024010B582B0002400941A4B5A6C86
:1026380042F480425A645A6C02F480420092009A32
:1026480001941A6C42F080521A641B6C03F0805398
:102658000193019B224621460120FEF7D9FA012069
:10266800FEF70AFB224621460420FEF7D1FA042091
:10267800FEF702FB224621460520FEF7C9FA05208F
:10268800FEF7FAFA224621465120FEF7C1FA5120F8
:10269800FEF7F2FA02B010BD0038024010B588B05B
:1026A800002303930493059306930793026803F1A9
:1026B800804303F590339A4201D008B010BD00243E
:1026C800019403F58C335A6C42F480725A645A6C44
:1026D80002F480720192019A02941A6B42F001028C
:1026E8001A631B6B03F001030293029B02230393FB
:1026F8000323049303A90648FEF700FC224621465B
:102708001220FEF785FA1220FEF7B6FAD5E700BFC9
:102718000000024000B585B00368B3F1804F08D0CF
:10272800224A93421AD0224A93422BD005B05DF830
:1027380004FB0021019103F50E331A6C42F00102EB
:102748001A641B6C03F001030193019B0A461C20C9
:10275800FEF75EFA1C20FEF78FFAE7E700210291E8
:10276800144B1A6C42F002021A641B6C03F0020349
:102778000293029B0A461D20FEF74AFA1D20FEF727
:102788007BFAD3E7002103910A4B1A6C42F004024A
:102798001A641B6C03F004030393039B0A461E2070
:1027A800FEF736FA1E20FEF767FABFE7000400407E
:1027B800000800400038024030B589B00023039378
:1027C80004930593069307930368244A934204D01D
:1027D800234A93422BD009B030BD00250095214BE8
:1027E8001A6B42F001021A631A6B02F0010200929E
:1027F800009A01951A6B42F002021A631B6B03F0F0
:1028080002030193019BC0230393022404940794B9
:1028180003A91548FEF772FB012303930494059559
:102828000695079403A91148FEF768FBD3E7002330
:1028380002930C4B1A6B42F002021A631B6B03F0F3
:1028480002030293029BC02303930223049307937A
:1028580003A90648FEF752FBBDE700BF000400408D
:102868000008004000380240000002400004024016
:102878007047FEE7FEE7FEE7FEE7704770477047E0
:1028880008B5FDF75BFE08BD08B5FEF729FC08BDD5
:1028980008B5FEF75DFA08BD7047000008B50248A4
:1028A800FEF733F808BD00BF2401002008B5024830
:1028B800FEF7E3FF08BD00BF6C01002008B5024821
:1028C800FEF7DBFF08BD00BFE400002008B50248A2
:1028D800FEF7D3FF08BD00BFA4000020704700002A
:1028E8000F49D1F8883043F47003C1F888300D4B94
:1028F8001A6842F001021A60002098601A6822F0F3
:10290800847222F480321A60074A5A601A6822F4E4
:1029180080221A60D8604FF000638B60704700BF58
:1029280000ED00E00038024010300024DFF834D019
:10293800002103E00C4B5B58435004310B480C4B0F
:1029480042189A42F6D30B4A02E0002342F8043BAD
:10295800094B9A42F9D3FFF7C3FF00F011F8FFF7CC
:10296800B3FC704700000220202A00080000002065
:102978001000002010000020B0010020FEE7000039
:1029880070B50D4E0D4CA41BA4100025A54209D10D
:102998000B4E0C4C00F020F8A41BA4100025A542F7
:1029A80005D170BD56F8253098470135EEE756F841
:1029B800253098470135F2E7182A0008182A000838
:1029C800182A00081C2A000802440346934200D132
:1029D800704703F8011BF9E7F8B500BFF8BC08BC5D
:1029E8009E467047F8B500BFF8BC08BC9E467047C5
:1029F80000000000000000000102030406070809A7
:082A08000000000001020304BC
:082A1000E8D7FF7F0100000080
:042A1800AD01000804
:042A1C008901000824
:102A20000100000010000000020000000024F4007B
:040000050800293591
:00000001FF
